:020000040800F2
:1000000068040020951A0008391900083B190008F7
:100010003D1900083F1900084119000800000000C0
:10002000000000000000000000000000431900086C
:100030004519000800000000471900084919000888
:10004000D51A0008D91A0008DD1A0008E11A0008BC
:10005000E51A0008E91A0008ED1A0008F11A00086C
:10006000F51A0008F91A0008FD1A0008011B00081B
:10007000051B0008091B00080D1B0008111B0008C8
:10008000151B0008191B00081D1B0008211B000878
:10009000251B0008291B00082D1B0008311B000828
:1000A000351B0008391B00083D1B0008411B0008D8
:1000B000451B0008491B00084D1B0008511B000888
:1000C000551B0008591B00085D1B0008611B000838
:1000D000651B0008511900086D1B0008711B000802
:1000E000751B0008791B00087D1B0008811B000898
:1000F000851B0008891B00088D1B0008911B000848
:10010000951B0008991B00089D1B0008A11B0008F7
:10011000A51B0008A91B0008AD1B0008B11B0008A7
:10012000B51B0008B91B0008BD1B0008C11B000857
:1001300010B50400DFF81806008800F06BFBDFF84C
:100140001406008800F07EFB012C0FD0C0F0C680A2
:10015000032C39D021D3052C64D04CD3072C00F0CC
:100160008F8076D3082C00F0A280B7E04021DFF822
:10017000E80500F0EBFB8021DFF8DC0500F0E9FB8F
:100180004FF48071DFF8D00500F0E0FB4FF4007110
:10019000DFF8C40500F0DDFBA0E04021DFF8B80582
:1001A00000F0D4FB8021DFF8B00500F0D2FB4FF463
:1001B0008071DFF8A40500F0C9FB4FF40071DFF88F
:1001C000980500F0C6FB89E04021DFF88C0500F0BF
:1001D000C0FB8021DFF8800500F0B8FB4FF4807190
:1001E000DFF8740500F0B5FB4FF40071DFF8680527
:1001F00000F0ACFB72E04021DFF85C0500F0A9FBE9
:100200008021DFF8540500F0A1FB4FF48071DFF886
:10021000480500F09EFB4FF40071DFF83C0500F04C
:1002200095FB5BE04021DFF8300500F08FFB80217B
:10023000DFF8240500F08DFB4FF48071DFF818051E
:1002400000F087FB4FF40071DFF80C0500F07EFB37
:1002500044E04021DFF8000500F078FB8021DFF862
:10026000F80400F076FB4FF48071DFF8EC0400F046
:1002700070FB4FF40071DFF8E00400F067FB2DE045
:100280004021DFF8D40400F064FB8021DFF8C804CB
:1002900000F05CFB4FF48071DFF8BC0400F056FB0B
:1002A0004FF40071DFF8B00400F053FB16E040217A
:1002B000DFF8A40400F04DFB8021DFF89C0400F07F
:1002C00045FB4FF48071DFF8900400F03FFB4FF4E2
:1002D0000071DFF8840400F03CFBFFE710BD10B5AF
:1002E0000400DFF86C04008800F094FADFF864047E
:1002F000008800F0A7FA012C0FD0C0F0C080032CBA
:1003000039D021D3052C64D04CD3072C00F08F803A
:1003100076D3082C00F0A080B1E04021DFF838044B
:1003200000F017FB8021DFF8300400F00FFB4FF4E2
:100330008071DFF8240400F00CFB4FF40071DFF84B
:10034000180400F003FB9AE04021DFF80C0400F0F1
:1003500000FB8021DFF8000400F0F8FA4FF4807110
:10036000DFF8F40300F0F5FA4FF40071DFF8E8036A
:1003700000F0ECFA83E04021DFF8DC0300F0E6FA5D
:100380008021DFF8D40300F0E4FA4FF48071DFF845
:10039000C80300F0DBFA4FF40071DFF8BC0300F093
:1003A000D8FA6CE04021DFF8B00300F0CFFA8021EA
:1003B000DFF8A40300F0CDFA4FF48071DFF8980362
:1003C00000F0C4FA4FF40071DFF88C0300F0C1FABA
:1003D00055E04021DFF8800300F0BBFA8021DFF810
:1003E000780300F0B3FA4FF48071DFF86C0300F08B
:1003F000ADFA4FF40071DFF8600300F0AAFA3EE0B6
:100400004021DFF8540300F0A4FA8021DFF848030C
:1004100000F09CFA4FF48071DFF83C0300F096FA8C
:100420004FF40071DFF8300300F093FA27E0402129
:10043000DFF8240300F08AFA8021DFF81C0300F0C3
:1004400088FA4FF48071C44800F083FA4FF40071C9
:10045000C14800F07BFA12E04021BF4800F076FA74
:100460008021BD4800F075FA4FF48071BA4800F061
:1004700070FA4FF40071B84800F068FAFFE710BD59
:1004800010B50400B248008800F0C4F9B1480088F3
:1004900000F0D8F9012C0ED0C0F0A580032C30D08C
:1004A0001CD3052C53D03FD3072C76D062D3082C15
:1004B00000F0868097E04021A74800F047FA8021AD
:1004C000A54800F046FA4FF48071A34800F041FAC5
:1004D0004FF40071A04800F039FA84E040219E48B2
:1004E00000F037FA80219C4800F030FA4FF4807118
:1004F000994800F02BFA4FF40071974800F029FA60
:1005000071E04021944800F021FA8021924800F0E7
:1005100020FA4FF48071904800F01BFA4FF40071FC
:100520008D4800F013FA5EE040218B4800F011FA8C
:100530008021894800F00AFA4FF48071864800F063
:1005400005FA4FF40071844800F003FA4BE04021B3
:10055000814800F0FBF980217F4800F0FAF94FF460
:1005600080717D4800F0F2F94FF400717A4800F094
:10057000F0F938E04021784800F0EBF98021764826
:1005800000F0E4F94FF48071734800F0E2F94FF4A1
:100590000071714800F0DAF925E040216E4800F062
:1005A000D5F980216C4800F0D4F94FF480716A4885
:1005B00000F0CCF94FF40071674800F0CAF912E07E
:1005C0004021654800F0C5F98021634800F0BEF97C
:1005D0004FF48071604800F0BCF94FF400715E4840
:1005E00000F0B4F9FFE710BD10B5040058480088CA
:1005F00000F010F95748008800F024F9012C0ED0C3
:10060000C0F0A580032C30D01CD3052C53D03FD391
:10061000072C76D062D3082C00F0868097E040212A
:100620004D4800F096F980214B4800F08FF94FF4C7
:100630008071494800F08AF94FF40071464800F093
:1006400088F984E04021444800F080F98021424844
:1006500000F07FF94FF480713F4800F07AF94FF4D1
:1006600000713D4800F072F971E040213A4800F015
:1006700070F98021384800F069F94FF480713648EC
:1006800000F064F94FF40071334800F062F95EE065
:100690004021314800F05AF980212F4800F059F9E3
:1006A0004FF480712C4800F054F94FF400712A483F
:1006B00000F04CF94BE04021274800F04AF9802136
:1006C000254800F043F94FF48071234800F041F9C8
:1006D0004FF40071204800F039F938E040211E48FD
:1006E00000F034F980211C4800F033F94FF4807198
:1006F000194800F02BF94FF40071174800F029F960
:1007000025E04021144800F024F98021124800F02F
:100710001DF94FF48071104800F01BF94FF400717F
:100720000D4800F013F912E040210B4800F00EF9DB
:100730008021094800F00DF94FF48071064800F05F
:1007400005F94FF40071044800F003F9FFE710BD0C
:10075000380000203A0000200010014080B501213F
:10076000082000F069F90121042000F055F9032068
:10077000ADF8000018208DF8030003208DF802006A
:1007800000A93C4800F07EF801BD00B587B040F2FA
:10079000E730ADF814004720ADF810000020ADF8A8
:1007A00016000020ADF8120004A9334800F062F9E9
:1007B0006020ADF800000120ADF802002F4800884D
:1007C000401EADF806000020ADF8080000A92A4838
:1007D00000F09AF90821284800F039FA0120ADF814
:1007E000020027480088401EADF8060000A92248F4
:1007F00000F0D7F90821204800F032FA01211E4804
:1008000000F017FA07B000BD80B5FFF7A7FFFFF7AC
:10081000BCFF01BD00B585B06021ADF8001001211D
:10082000ADF80210401EADF806000020ADF808003B
:1008300000A9114800F068F908210F4800F007FAF4
:1008400005B000BD00B585B06021ADF800100121F4
:10085000ADF80210401EADF806000020ADF808000B
:1008600000A9054800F09DF90821034800F0F8F9B7
:1008700005B000BD00080140000C00403800002019
:100880003A000020F0B400220026002400250023B6
:10089000002791F803C01CF00F0C624691F803C0CA
:1008A0005FEACC6C01D58B781A430B781B0621D0FC
:1008B0000368002406E0CD78482D02D10125A5402B
:1008C0000561641C082C14D20125A5400E882E4019
:1008D000AE42F6D1A5000F2616FA05F7BB4312FA71
:1008E00005F52B43CD78282DE5D10125A54045619F
:1008F000E7E703600B88FF2B26DD4368002420E038
:10090000012514F10806B5400E882E40AE4217D1DD
:10091000A5000F2616FA05F7BB4312FA05F52B437F
:10092000CD78282D04D1012514F10806B540456184
:10093000CD78482D04D1012514F10806B540056194
:10094000641C082CDCD34360F0BC704789B20161A1
:10095000704789B24161704730B400220021002302
:1009600000243D4D2D6815F00C052A00002A04D006
:10097000042A05D0082A06D021E03849016020E089
:10098000364901601DE03449096811F47011324A9A
:10099000126812F48033890C891C002B03D1304A71
:1009A000514301600AE02C4A1268920303D52C4A95
:1009B0005143016002E0294A5143016001E02749A7
:1009C00001602549096811F0F00212092549545CBB
:1009D0000168E14041602049096811F4E062120AAF
:1009E0002049545C4168E14081601B49096811F469
:1009F0006052D20A1B49545C4168E140C16016490B
:100A0000096811F44042920B1749545CC168B1FB6C
:100A1000F4F1016130BC7047C9B2002905D0134917
:100A2000096808431149086005E01049096831EA7E
:100A300000000E4908607047C9B2002905D00C4972
:100A4000096808430A49086005E00949096831EA6C
:100A500000000749086070470410024000127A0045
:100A600000093D0020000020300000201810024046
:100A70001C100240002203881A00DFF8F831984267
:100A800012D0DFF8083298420ED0B0F1804F0BD070
:100A9000DFF8E431984207D0DFF8E031984203D024
:100AA000DFF8DC31984204D14FF68F731A404B883F
:100AB0001A43DFF8D031984208D0DFF8CC319842A1
:100AC00004D04FF6FF431A40CB881A4302808A882D
:100AD00082850A880285DFF89C2190420FD0DFF8DA
:100AE000AC2190420BD0DFF8A821904207D0DFF86C
:100AF000A421904203D0DFF8A021904201D1097ACD
:100B0000018601218182704770B4002300240022F5
:100B1000058C4FF6FE7635400584058C2C008588C3
:100B20002A00058B2B004FF68F752B404FF6FC7576
:100B30002B400D882B434FF6FD752C400D892C431F
:100B40004D882C43DFF82C51A8420FD0DFF83C51E0
:100B5000A8420BD0DFF83851A84207D0DFF8345153
:100B6000A84203D0DFF83051A84213D14FF6F775F1
:100B70002C404D892C434FF6FB752C408D882C431F
:100B80004FF6FF652A404FF6FF552A408D892A43CC
:100B9000CD892A4382800383C9888186048470BCFE
:100BA000704770B4002300240022058C4FF6EF76C6
:100BB00035400584058C2C0085882A00058B2B0088
:100BC00048F6FF752B404FF6FF452B400D8853EA42
:100BD00005234FF6DF752C400D8954EA05144D8826
:100BE00054EA0514DFF88C50A84203D0DFF8AC506B
:100BF000A84217D14FF67F752C404D8954EA051451
:100C00004FF6BF752C408D8854EA05144FF6FF351A
:100C10002A404FF2FF752A408D8952EA8502CD891C
:100C200052EA850282800383C9880187048470BCEC
:100C30007047C9B2002904D0018851F00101018038
:100C400004E001884FF6FE721140018070470022D7
:100C5000038B1A004FF6F7731A400A43028370475A
:100C60000022038B1A004FF2FF731A4052EA01224E
:100C700002837047002C014000040040000800403F
:100C8000000C0040001000400014004000340140FF
:100C90000040014000440140004801400034014050
:100CA00080B501210820FFF7B7FEC020ADF8000095
:100CB00003208DF8020014208DF8030000A9644879
:100CC000FFF7E0FD01BD0A200100481EC9B200295E
:100CD000FAD1704704E0491E89B20029FBD1401EB9
:100CE000C0B2002802D042F6DE61F5E7704780B559
:100CF000802058490860402056490860FFF7E3FF0C
:100D000055480068002801D1012000E00020802023
:100D100052490860FFF7D7FF4F480068000601D529
:100D2000022005E040204D490860FFF7CCFF00207D
:100D300002BD80B5802049490860402047490860CD
:100D4000FFF7C1FF402043490860FFF7BCFF802048
:100D500040490860FFF7B7FF01BD80B540203F491B
:100D60000860FFF7B0FF80203A490860FFF7ABFF4B
:100D7000402038490860FFF7A6FF40203749086047
:100D8000FFF7A1FF01BD80B5402034490860FFF79F
:100D90009AFF80202F490860FFF795FF40202D49DA
:100DA0000860FFF790FF2C480068000604D540203B
:100DB0002A490860002003E04020284908600120FB
:100DC00002BD38B5040008250AE0802023490860E8
:100DD0006400FFF778FF40201E490860FFF773FFAB
:100DE0002800451EC0B200280AD040201B490860D8
:100DF000FFF769FF2006E8D5802016490860E7E77D
:100E000040201649086031BD38B5082400258020EF
:100E10001049086010E06D00402010490860FFF79D
:100E200052FF40200B490860FFF74DFF0A48006859
:100E3000000601D555F001052000441EC0B200286F
:100E4000E9D14020054908602800C0B232BD000049
:100E5000000C0140100C0140080C0140140C014032
:100E600038B504000D00FFF742FFC0B2002801D0E2
:100E7000C0B21CE0A020FFF7A4FFFFF784FF00280A
:100E800003D1FFF756FF002011E02800C0B2FFF7A2
:100E900098FFFFF778FF2000C0B2FFF792FFFFF73F
:100EA00072FFFFF746FF1420FFF714FF032032BD47
:100EB00010B50400FFF71BFFC0B2002801D0C0B27C
:100EC00020E0A020FFF77DFFFFF75DFF002803D1A2
:100ED000FFF72FFF002015E02000C0B2FFF771FFE1
:100EE000FFF751FFFFF703FFA120FFF76AFFFFF7AE
:100EF0004AFFFFF789FF0400FFF72FFFFFF719FFF5
:100F00002000C0B210BD10B450F8041B81B10268BB
:100F10001218001D50F8043BDC0744BFA9F101047E
:100F2000E31852F8044B43F8044B091FF9D1EBE7DF
:100F300010BC704780B501210420FFF76DFD4FF410
:100F40008070ADF8000028208DF8030000A96448E7
:100F5000FFF798FC4FF40060ADF8000010208DF80A
:100F6000030003208DF8020000A95D48FFF78AFC0A
:100F700001210820FFF750FD4FF44060ADF800005C
:100F800010208DF8030003208DF8020000A95548B9
:100F9000FFF778FC01BD10B582B004000120ADF868
:100FA00000000020504948700120ADF8000021E009
:100FB00000204E49086001204D490860322000F0B1
:100FC000CBF800204A490860322000F0C5F8012023
:100FD0004749086047480068002806D042484078E2
:100FE000BDF80010084340494870BDF800004000BB
:100FF000ADF80000BDF80000FF2808DCBDF80000D7
:10100000C0B22042D4D0012038490860D3E713BDD4
:1010100038B500240125002037490860374800789A
:10102000FFF7B9FF35484078FFF7B5FF022004000D
:101030001EE001202E49086000202D490860322062
:1010400000F08AF801202A4908602A480068002830
:1010500006D02548E4B2205C28432349E4B260541A
:101060006D00ADB2FF2DE4DD322000F075F8641C98
:10107000E4B2092C01DA0125F3E701201E490860DA
:1010800031BD80B500F020F8FFF7C2FF16480079A7
:101090001549C97851EA002019490880002000E06C
:1010A000401CC0B210280DDA154909880122154BE1
:1010B000C0B233F810305B1E9A401142F0D1401C90
:1010C000C0B200E0002002BD002004E00021064A7A
:1010D000C0B28154401CC0B20928F7DB7047000041
:1010E00000080140000C014040000020AC012142FA
:1010F000AC81214220012142A88121423C000020F4
:101100005C0000200000002040B2002808D5090142
:101110002A4A40B210F00F00801800F8041C03E0C7
:101120000901274A40B28154704780B5411EB1F190
:10113000807F01D301200EE0401E224908600F216C
:101140005FF0FF30FFF7E0FF00201F490860072035
:101150001E490860002002BD01B400981E490860C5
:101160001D4800680028FBD101B0704701B4009809
:101170004FF47A71484318490860174800680028FE
:10118000FBD101B0704714480068002804D0124811
:101190000068401E10490860704780B50C48006820
:1011A0000C49B0FBF1F0FFF7C0FF002800D0FEE7CC
:1011B00000215FF0FF30FFF7A7FF01BD18ED00E051
:1011C00000E400E014E000E018E000E010E000E0DF
:1011D0003400002040420F005800002080B55348E2
:1011E000007800286FD15248006890F020005049E4
:1011F00008604E484078012806D051D3032829D0F2
:1012000015D3042839D04BE040214A48FFF79EFB14
:1012100080214848FFF79DFB4FF480714548FFF758
:1012200095FB4FF400714348FFF793FB7DE04021AD
:101230004048FFF78EFB80213E48FFF787FB4FF4C5
:1012400080713C48FFF785FB4FF400713948FFF788
:101250007DFB6AE040213748FFF778FB8021354865
:10126000FFF777FB4FF480713248FFF772FB4FF4C2
:1012700000713048FFF76AFB57E040212D48FFF727
:1012800068FB80212B48FFF761FB4FF480712948F0
:10129000FFF75CFB4FF400712648FFF75AFB44E070
:1012A00040212448FFF755FB80212248FFF751FBDE
:1012B0004FF480711F48FFF74CFB4FF400711D483D
:1012C000FFF747FB31E019480078022820D1174882
:1012D0008078652829DA15484078012809D1134813
:1012E0008078C000C8301449088013480088FFF790
:1012F00091FA0E484078022817D10C488078C00037
:10130000C8300E4908800D480088FFF79BFA0CE0B2
:1013100006480078402808D10448407808490870F9
:10132000102107480078FFF79BFD01BD4C0000200D
:101330000C0C014000100140380000203A00002051
:101340005E000020F0B585B004000D0000200021F3
:10135000002200230026AF89002F2600208A4CF6A9
:10136000FF710840E98808432082A0894EF6F311F6
:101370000840A9882A8911436A8911430843A0813A
:10138000A08A4FF6FF410840A9890843A08200A81F
:10139000FFF7E2FA1B48864201D1039900E0029967
:1013A000A089000407D5192000FB01F02968490035
:1013B000B0FBF1F206E0192000FB01F0296889007A
:1013C000B0FBF1F26420B2FBF0F0000101096423EC
:1013D00003FB1123A189090408D5D9003231642205
:1013E000B1FBF2F111F00701084307E019013231B6
:1013F0006422B1FBF2F111F00F010843208105B026
:10140000F0BD000000380140C9B2002904D0818934
:1014100051F40051818104E081894DF6FF72114041
:1014200081817047F0B4002300240025002689B292
:1014300040F66A17B94206000800C0B24309DBB2A1
:1014400089B211F01F04012010FA04F5012B01D11B
:101450000C3604E0022B01D1103600E01436D2B273
:10146000002A03D030682843306002E03068A84387
:101470003060F0BC70478088C005C00D7047002206
:1014800089B2B1F5007F0088084201D0012200E056
:1014900000221000C0B2704789B28A0589B2C943E0
:1014A0000180704780B54F48006850F001004D49F9
:1014B00008604D4800684D4908404B49086049485C
:1014C00000684B490840474908604648006830F4C6
:1014D0008020444908604448006830F4FE004249D6
:1014E00008605FF41F004349086000F005F85FF0F2
:1014F00000604149086001BD80B500F001F801BD00
:1015000082B000200190002000903648006850F41E
:101510008030344908603348006810F4003000908F
:101520000198401C01900098002803D10198B0F563
:10153000A06FF0D12B480068800302D501200090F5
:1015400001E0002000900098012847D12B48006856
:1015500050F0100029490860284800688008800081
:10156000264908602548006850F0020023490860B9
:101570001D4800681C4908601B4800681A4908603B
:101580001948006850F480601749086016480068E0
:1015900030F47C10144908601348006850F4E810D7
:1015A000114908600F48006850F080700D490860CC
:1015B0000C4800688001FBD50B480068800880005B
:1015C000094908600848006850F0020006490860B0
:1015D0000548006810F00C000828F9D102B07047E7
:1015E0000000000000100240041002400000FFF85C
:1015F000FFFFF6FE0810024008ED00E00020024068
:1016000080B5FFF74FFFFFF7C8FD00F07DF800F051
:10161000C9F8FFF7F9F800F0F5F8FFF78BFC4FF485
:101620007A70FFF7F7F84FF47A70FFF70BF927E0BD
:101630002F480078062803D12E480078FEF7D4FF03
:101640002D4800680B281BDB00202B4908602B4825
:101650000068012814D1002028490860402128484A
:10166000FFF777F980212648FFF773F94FF480716F
:101670002348FFF76EF94FF400712148FFF769F92D
:10168000FFF7FFFC1A4908700A20FFF76FFD1A48A0
:101690000068401C18490860154800780028CFD021
:1016A00000201549086001201449086015480068A9
:1016B00090F02000134908600D480078052804D1F7
:1016C0000C480078FEF734FDBAE70948007807288F
:1016D00004D108480078FEF702FEB1E7044800781C
:1016E0000828A5D103480078FEF7CAFEA8E700BF86
:1016F000600000205E000020500000205400002008
:10170000001001400C0C014080B500F02CF800F0F6
:1017100001F801BD80B501210820FFF77DF92020E7
:10172000ADF8000010208DF8030000A91A48FFF75B
:10173000A9F801212020FFF76FF90420ADF800007F
:1017400010208DF8030003208DF8020000A9134833
:10175000FFF798F820211048FFF7FBF804210F4805
:10176000FFF7F7F801BD80B501211020FFF754F90C
:101770004FF47070ADF8000010208DF803000320C6
:101780008DF8020000A90648FFF77CF84FF470714D
:101790000348FFF7DEF801BD000C014000140140D2
:1017A0000010014010B5FFF77BFA1020FFF780FB17
:1017B0001149087010480078FF2802D101200E4915
:1017C00008700920FFF774FB04000A20FFF770FB84
:1017D000E4B2652C02DAC0B2652801DB642464201F
:1017E000E4B2E100C831054A1180C0B2C000C8307F
:1017F0000349088010BD00005E0000203800002072
:101800003A00002000B587B0012144F20400FFF740
:1018100003F94FF40070ADF8000018208DF80300B4
:1018200003208DF8020000A92148FFF72BF84FF4A0
:101830008060ADF8000004208DF8030000A91C486A
:10184000FFF720F84FF4C06000F036F825208DF83F
:10185000040000208DF8050001208DF8060001200D
:101860008DF8070001A800F02CF84FF416500290F4
:101870000020ADF80C000020ADF80E000020ADF8FF
:1018800010000020ADF814000C20ADF8120002A9E1
:101890000848FFF757FD012240F225510548FFF7A0
:1018A000C1FD01210348FFF7AFFD07B000BD0000F7
:1018B00000080140003801401A4908431A490860ED
:1018C000704710B4002100220F23C478002C1DD0D3
:1018D0001549096811F4E061D1F5E061090AD1F117
:1018E0000402CB404178914082781A4011430901AB
:1018F0000E4A037899540121027812F01F02914098
:101900000B4A0078401142F8201009E001210278CA
:1019100012F01F029140074A0078401142F820104F
:1019200010BC70470000FA050CED00E000E400E098
:1019300000E100E080E100E07047FEE7FEE7FEE73F
:10194000FEE770477047704780B5FFF71CFC01BD8C
:1019500080B520211E48FFF792FD012832D12021B9
:101960001B48FFF799FD1B48007800280BD1184849
:10197000FFF781FDFF282AD10120164908700020B9
:101980001549087023E01248FFF775FDFF280CD1B8
:1019900000201049087010480078032801D1FFF793
:1019A0001DFC00200C49087011E00948FFF763FD99
:1019B0000A49094A1278505407480078401C0649E1
:1019C000087004E04FF480710148FFF765FD01BD28
:1019D000003801405F000020610000204C00002022
:1019E00010B5074979441831064C7C44163404E09C
:1019F0000A68081D511888470146A142F8D110BD58
:101A00002C0000004C00000050F8041B61B150F89D
:101A1000042BD30744BFA9F101039A18002342F80D
:101A2000043B091FFAD1EFE770470000DDFFFFFF1D
:101A3000240000004000002000000000CBF4FFFF65
:101A400040000000800100000000002000000000B5
:101A500000F00BF8002801D0FFF7C2FF0020C046BD
:101A6000C046FFF7CDFD00F002F80120704700F0FE
:101A700001B800000746384600F002F8FBE7000016
:101A800080B5C046C046024A11001820ABBEFBE735
:101A9000260002000148804701480047A5140008BD
:101AA000A51A0008C046C046C046C046FFF7D0FF92
:101AB000FFF742BFFFF741BFFFF740BFFFF73FBF50
:101AC000FFF73EBFFFF73DBFFFF73CBFFFF73BBF50
:101AD000FFF73ABFFFF7FEBFFFF7FEBFFFF7FEBFFE
:101AE000FFF7FEBFFFF7FEBFFFF7FEBFFFF7FEBF2A
:101AF000FFF7FEBFFFF7FEBFFFF7FEBFFFF7FEBF1A
:101B0000FFF7FEBFFFF7FEBFFFF7FEBFFFF7FEBF09
:101B1000FFF7FEBFFFF7FEBFFFF7FEBFFFF7FEBFF9
:101B2000FFF7FEBFFFF7FEBFFFF7FEBFFFF7FEBFE9
:101B3000FFF7FEBFFFF7FEBFFFF7FEBFFFF7FEBFD9
:101B4000FFF7FEBFFFF7FEBFFFF7FEBFFFF7FEBFC9
:101B5000FFF7FEBFFFF7FEBFFFF7FEBFFFF7FEBFB9
:101B6000FFF7FEBFFFF7FEBFFFF7F2BEFFF7FEBFB6
:101B7000FFF7FEBFFFF7FEBFFFF7FEBFFFF7FEBF99
:101B8000FFF7FEBFFFF7FEBFFFF7FEBFFFF7FEBF89
:101B9000FFF7FEBFFFF7FEBFFFF7FEBFFFF7FEBF79
:101BA000FFF7FEBFFFF7FEBFFFF7FEBFFFF7FEBF69
:101BB000FFF7FEBFFFF7FEBFFFF7FEBFFFF7FEBF59
:101BC000FFF7FEBF0100020003000400050006004D
:101BD0000700080009000A000B000C000D000E00B1
:101BE0000F001000000000000102030401020304C2
:101BF000060708090204060800A24A04E803E803ED
:041C0000014200009D
:0400000508001AA530
:00000001FF
